{
  "contractName": "Acquire",
  "abi": [
    {
      "constant": true,
      "inputs": [
        {
          "name": "",
          "type": "uint256"
        }
      ],
      "name": "owners",
      "outputs": [
        {
          "name": "",
          "type": "address"
        }
      ],
      "payable": false,
      "stateMutability": "view",
      "type": "function"
    },
    {
      "constant": false,
      "inputs": [
        {
          "name": "landId",
          "type": "uint256"
        }
      ],
      "name": "acquire",
      "outputs": [
        {
          "name": "",
          "type": "uint256"
        }
      ],
      "payable": false,
      "stateMutability": "nonpayable",
      "type": "function"
    },
    {
      "constant": true,
      "inputs": [],
      "name": "getOwners",
      "outputs": [
        {
          "name": "",
          "type": "address[16]"
        }
      ],
      "payable": false,
      "stateMutability": "view",
      "type": "function"
    }
  ],
  "bytecode": "0x6060604052341561000f57600080fd5b6102dd8061001e6000396000f300606060405260043610610057576000357c0100000000000000000000000000000000000000000000000000000000900463ffffffff168063025e7c271461005c57806320889d3b146100bf578063a0e67e2b146100f6575b600080fd5b341561006757600080fd5b61007d6004808035906020019091905050610147565b604051808273ffffffffffffffffffffffffffffffffffffffff1673ffffffffffffffffffffffffffffffffffffffff16815260200191505060405180910390f35b34156100ca57600080fd5b6100e0600480803590602001909190505061017c565b6040518082815260200191505060405180910390f35b341561010157600080fd5b6101096101f1565b6040518082601060200280838360005b83811015610134578082015181840152602081019050610119565b5050505090500191505060405180910390f35b60008160108110151561015657fe5b016000915054906101000a900473ffffffffffffffffffffffffffffffffffffffff1681565b600080821015801561018f5750600f8211155b151561019a57600080fd5b336000836010811015156101aa57fe5b0160006101000a81548173ffffffffffffffffffffffffffffffffffffffff021916908373ffffffffffffffffffffffffffffffffffffffff160217905550819050919050565b6101f9610272565b6000601080602002604051908101604052809291908260108015610268576020028201915b8160009054906101000a900473ffffffffffffffffffffffffffffffffffffffff1673ffffffffffffffffffffffffffffffffffffffff168152602001906001019080831161021e575b5050505050905090565b610200604051908101604052806010905b600073ffffffffffffffffffffffffffffffffffffffff1681526020019060019003908161028357905050905600a165627a7a72305820bedefaf5f4e1fdd3f524ac1c52ee9369b02734d97c98d59b984cf132f556076c0029",
  "source": "pragma solidity ^0.4.17;\n\ncontract Acquire {\n\n  address[16] public owners;\n\n  function acquire(uint landId) public returns (uint) {\n    require(landId >= 0 && landId <= 15);\n\n    owners[landId] = msg.sender;\n\n    return landId;\n\n  }\n\n\n  function getOwners() public view returns (address[16]) {\n      return owners;\n  }\n\n\n}\n",
  "sourcePath": "/home/dv/dev/dapps/farmtogether/contracts/Acquire.sol",
  "compiler": {
    "name": "solc",
    "version": "0.4.19+commit.c4cbbb05.Emscripten.clang"
  },
  "schemaVersion": "2.0.0",
  "updatedAt": "2018-04-12T20:42:57.103Z"
}